{
  "contractName": "dogsUpdated",
  "abi": [
    {
      "inputs": [],
      "stateMutability": "nonpayable",
      "type": "constructor"
    },
    {
      "inputs": [],
      "name": "_initialized",
      "outputs": [
        {
          "internalType": "bool",
          "name": "",
          "type": "bool"
        }
      ],
      "stateMutability": "view",
      "type": "function"
    },
    {
      "inputs": [],
      "name": "owner",
      "outputs": [
        {
          "internalType": "address",
          "name": "",
          "type": "address"
        }
      ],
      "stateMutability": "view",
      "type": "function"
    },
    {
      "inputs": [
        {
          "internalType": "address",
          "name": "_owner",
          "type": "address"
        }
      ],
      "name": "initialize",
      "outputs": [],
      "stateMutability": "nonpayable",
      "type": "function"
    },
    {
      "inputs": [],
      "name": "getNumberOfDogs",
      "outputs": [
        {
          "internalType": "uint256",
          "name": "",
          "type": "uint256"
        }
      ],
      "stateMutability": "view",
      "type": "function"
    },
    {
      "inputs": [
        {
          "internalType": "uint256",
          "name": "toSet",
          "type": "uint256"
        }
      ],
      "name": "setNumberOfDogs",
      "outputs": [],
      "stateMutability": "nonpayable",
      "type": "function"
    }
  ],
  "bytecode": "0x608060405234801561001057600080fd5b506100203361002560201b60201c565b61009e565b600560149054906101000a900460ff161561003f57600080fd5b80600560006101000a81548173ffffffffffffffffffffffffffffffffffffffff021916908373ffffffffffffffffffffffffffffffffffffffff1602179055506001600560146101000a81548160ff02191690831515021790555050565b610447806100ad6000396000f3fe608060405234801561001057600080fd5b50600436106100575760003560e01c806314861b221461005c5780631680a5ed146100785780633072cf60146100965780638da5cb5b146100b4578063c4d66de8146100d2575b600080fd5b61007660048036038101906100719190610294565b6100ee565b005b61008061016c565b60405161008d9190610375565b60405180910390f35b61009e61018f565b6040516100ab919061035a565b60405180910390f35b6100bc6101a2565b6040516100c9919061033f565b60405180910390f35b6100ec60048036038101906100e7919061026b565b6101c8565b005b600560009054906101000a900473ffffffffffffffffffffffffffffffffffffffff1673ffffffffffffffffffffffffffffffffffffffff163373ffffffffffffffffffffffffffffffffffffffff161461014857600080fd5b8060006040516101579061032a565b90815260200160405180910390208190555050565b60008060405161017b9061032a565b908152602001604051809103902054905090565b600560149054906101000a900460ff1681565b600560009054906101000a900473ffffffffffffffffffffffffffffffffffffffff1681565b600560149054906101000a900460ff16156101e257600080fd5b80600560006101000a81548173ffffffffffffffffffffffffffffffffffffffff021916908373ffffffffffffffffffffffffffffffffffffffff1602179055506001600560146101000a81548160ff02191690831515021790555050565b600081359050610250816103e3565b92915050565b600081359050610265816103fa565b92915050565b60006020828403121561027d57600080fd5b600061028b84828501610241565b91505092915050565b6000602082840312156102a657600080fd5b60006102b484828501610256565b91505092915050565b6102c68161039b565b82525050565b6102d5816103ad565b82525050565b60006102e8600483610390565b91507f446f6773000000000000000000000000000000000000000000000000000000006000830152600482019050919050565b610324816103d9565b82525050565b6000610335826102db565b9150819050919050565b600060208201905061035460008301846102bd565b92915050565b600060208201905061036f60008301846102cc565b92915050565b600060208201905061038a600083018461031b565b92915050565b600081905092915050565b60006103a6826103b9565b9050919050565b60008115159050919050565b600073ffffffffffffffffffffffffffffffffffffffff82169050919050565b6000819050919050565b6103ec8161039b565b81146103f757600080fd5b50565b610403816103d9565b811461040e57600080fd5b5056fea2646970667358221220eb9069b7d71263b3b15b0e6d1282b2354ce4c721116073233f3876287c38581964736f6c63430008000033",
  "immutableReferences": {},
  "source": "// SPDX-License-Identifier: MIT\npragma solidity ^0.8.0;\nimport \"./Storage.sol\";\n\ncontract dogsUpdated is Storage{\n\n    modifier onlyOwner{\n        require(msg.sender == owner);\n        _;\n    }\n\n    constructor() {\n        initialize(msg.sender);\n    }\n\n    function initialize(address _owner) public {\n        require(!_initialized);\n        owner = _owner;\n        _initialized = true;\n    }\n\n    function getNumberOfDogs() public view returns(uint){\n        return _uintStorage[\"Dogs\"];\n    }\n\n    function setNumberOfDogs(uint toSet) public onlyOwner {\n        _uintStorage[\"Dogs\"] = toSet;\n    }\n}",
  "sourcePath": "/Users/danieljoseph/Desktop/solidity/proxy contract/contracts/DogsUpdated.sol",
  "compiler": {
    "name": "solc",
    "version": "0.8.0+commit.c7dfd78e.Emscripten.clang"
  },
  "schemaVersion": "3.4.3",
  "updatedAt": "2021-09-21T17:10:58.913Z",
  "devdoc": {
    "kind": "dev",
    "methods": {},
    "version": 1
  },
  "userdoc": {
    "kind": "user",
    "methods": {},
    "version": 1
  }
}